:020000040800F2
:100000000050002081220008E91F0008EF1F0008AF
:10001000F51F0008FB1F0008012000080000000079
:1000200000000000000000000000000007200008A1
:1000300013200008000000001F2000082B200008EB
:10004000C9220008C9220008C9220008C9220008E4
:10005000C9220008C9220008C9220008C9220008D4
:10006000C9220008C9220008C9220008C9220008C4
:10007000C9220008C9220008C9220008C9220008B4
:10008000C9220008C9220008C9220008C9220008A4
:10009000C9220008C9220008C9220008C922000894
:1000A000C9220008C9220008C9220008C922000884
:1000B000C9220008C9220008C9220008C922000874
:1000C000C9220008C9220008C9220008C922000864
:1000D000C9220008C9220008C9220008C922000854
:1000E000C9220008C9220008C92200080000000037
:1000F0000000000000000000000000000000000000
:0C01000000000000000000005FF808F1A3
:1001100010B5054C237833B9044B13B10448AFF341
:1001200000800123237010BDF001002000000000BA
:10013000E872000808B5034B1BB103490348AFF34D
:10014000008008BD00000000F4010020E8720008F3
:10015000034613F8012B002AFBD1181A0138704707
:100160004FF0FF0C1CEAD0521EBF1CEAD15392EA9A
:100170000C0F93EA0C0F6FD01A4480EA010C400276
:1001800018BF5FEA41211ED04FF0006343EA5010D0
:1001900043EA5111A0FB01310CF00040B1F5000F12
:1001A0003EBF490041EAD3715B0040EA010062F1C1
:1001B0007F02FD2A1DD8B3F1004F40EBC25008BFAB
:1001C00020F00100704790F0000F0CF0004C08BFC9
:1001D00049024CEA502040EA51207F3AC2BFD2F196
:1001E000FF0340EAC250704740F400004FF00003A4
:1001F000013A5DDC12F1190FDCBF00F000407047DE
:10020000C2F10002410021FA02F1C2F1200200FA1B
:1002100002FC5FEA310040F1000053EA4C0308BFE2
:1002200020EADC70704792F0000F00F0004C02BF33
:10023000400010F4000F013AF9D040EA0C0093F0AE
:10024000000F01F0004C02BF490011F4000F013B08
:10025000F9D041EA0C018FE70CEAD15392EA0C0F76
:1002600018BF93EA0C0F0AD030F0004C18BF31F0E1
:10027000004CD8D180EA010000F00040704790F0B7
:10028000000F17BF90F0004F084691F0000F91F05B
:10029000004F14D092EA0C0F01D142020FD193EA21
:1002A0000C0F03D14B0218BF084608D180EA0100A9
:1002B00000F0004040F0FE4040F40000704740F085
:1002C000FE4040F44000704781F0004102E000BF72
:1002D00083F0004330B54FEA41044FEA430594EA06
:1002E000050F08BF90EA020F1FBF54EA000C55EA41
:1002F000020C7FEA645C7FEA655C00F0E2804FEA12
:100300005454D4EB5555B8BF6D420CDD2C4480EAF3
:10031000020281EA030382EA000083EA010180EA23
:10032000020281EA0303362D88BF30BD11F0004F71
:100330004FEA01314FF4801C4CEA113102D04042A7
:1003400061EB410113F0004F4FEA03334CEA1333E2
:1003500002D0524263EB430394EA050F00F0A780FA
:10036000A4F10104D5F1200E0DDB02FA0EFC22FAF5
:1003700005F2801841F1000103FA0EF2801843FAE9
:1003800005F359410EE0A5F120050EF1200E012ADA
:1003900003FA0EFC28BF4CF0020C43FA05F3C01818
:1003A00051EBE37101F0004507D54FF0000EDCF191
:1003B000000C7EEB00006EEB0101B1F5801F1BD33A
:1003C000B1F5001F0CD349085FEA30004FEA3C0C3E
:1003D00004F101044FEA445212F5800F80F09A8034
:1003E000BCF1004F08BF5FEA500C50F1000041EB38
:1003F000045141EA050130BD5FEA4C0C404141EB3C
:100400000101013C28BFB1F5801FE9D291F0000F36
:1004100004BF01460020B1FA81F308BF2033A3F1E5
:100420000B03B3F120020CDA0C3208DD02F1140CDC
:10043000C2F10C0201FA0CF021FA02F10CE002F117
:100440001402D8BFC2F1200C01FA02F120FA0CFC10
:10045000DCBF41EA0C019040E41AA2BF01EB045159
:10046000294330BD6FEA04041F3C1CDA0C340EDC57
:1004700004F11404C4F1200220FA04F001FA02F39A
:1004800040EA030021FA04F345EA030130BDC4F158
:100490000C04C4F1200220FA02F001FA04F340EA4D
:1004A0000300294630BD21FA04F0294630BD94F0FE
:1004B000000F83F4801306BF81F480110134013DE5
:1004C0004EE77FEA645C18BF7FEA655C29D094EA56
:1004D000050F08BF90EA020F05D054EA000C04BFD4
:1004E0001946104630BD91EA030F1EBF00210020BF
:1004F00030BD5FEA545C05D14000494128BF41F05E
:10050000004130BD14F580043CBF01F5801130BDC1
:1005100001F0004545F0FE4141F470014FF000004C
:1005200030BD7FEA645C1ABF194610467FEA655CFD
:100530001CBF0B46024650EA013406BF52EA03359F
:1005400091EA030F41F4002130BD00BF90F0000F8D
:1005500004BF0021704730B54FF4806404F13204C9
:100560004FF000054FF0000150E700BF90F0000F82
:1005700004BF0021704730B54FF4806404F13204A9
:1005800010F0004548BF40424FF000013EE700BF79
:1005900042004FEAE2014FEA31014FEA02701FBF09
:1005A00012F07F4393F07F4F81F06051704732F03B
:1005B0007F4208BF704793F07F4F04BF41F4002192
:1005C000704730B54FF4607401F0004521F00041F0
:1005D0001CE700BF50EA010208BF704730B54FF07A
:1005E00000050AE050EA010208BF704730B511F07B
:1005F000004502D5404261EB41014FF4806404F1B3
:1006000032045FEA915C3FF4D8AE4FF003025FEA38
:10061000DC0C18BF03325FEADC0C18BF033202EBBC
:10062000DC02C2F1200300FA03FC20FA02F001FA16
:1006300003FE40EA0E0021FA02F11444BDE600BFB9
:1006400070B54FF0FF0C4CF4E06C1CEA11541DBF68
:100650001CEA135594EA0C0F95EA0C0F00F0DEF833
:100660002C4481EA030621EA4C5123EA4C5350EA18
:10067000013518BF52EA033541F4801143F4801369
:1006800038D0A0FB02CE4FF00005E1FB02E506F0FA
:100690000042E0FB03E54FF00006E1FB03569CF04F
:1006A000000F18BF4EF0010EA4F1FF04B6F5007F55
:1006B00064F5407404D25FEA4E0E6D4146EB0606C7
:1006C00042EAC62141EA55514FEAC52040EA5E5050
:1006D0004FEACE2EB4F1FD0C88BFBCF5E06F1ED8FA
:1006E000BEF1004F08BF5FEA500E50F1000041EB31
:1006F000045170BD06F0004646EA010140EA0200DE
:1007000081EA0301B4EB5C04C2BFD4EB0C0541EAFF
:10071000045170BD41F480114FF0000E013C00F314
:10072000AB8014F1360FDEBF002001F0004170BD38
:10073000C4F10004203C35DA0C341BDC04F1140451
:10074000C4F1200500FA05F320FA04F001FA05F2DD
:1007500040EA020001F0004221F0004110EBD370AA
:1007600021FA04F642EB06015EEA430E08BF20EAD6
:10077000D37070BDC4F10C04C4F1200500FA04F379
:1007800020FA05F001FA04F240EA020001F000410B
:1007900010EBD37041F100015EEA430E08BF20EA7E
:1007A000D37070BDC4F1200500FA05F24EEA020EC6
:1007B00020FA04F301FA05F243EA020321FA04F0F5
:1007C00001F0004121FA04F220EA020000EBD370AC
:1007D0005EEA430E08BF20EAD37070BD94F0000FAC
:1007E0000FD101F00046400041EB010111F4801FE0
:1007F00008BF013CF7D041EA060195F0000F18BF91
:10080000704703F00046520043EB030313F4801FCC
:1008100008BF013DF7D043EA0603704794EA0C0F86
:100820000CEA135518BF95EA0C0F0CD050EA41069C
:1008300018BF52EA4306D1D181EA030101F0004119
:100840004FF0000070BD50EA410606BF1046194641
:1008500052EA430619D094EA0C0F02D150EA01364D
:1008600013D195EA0C0F05D152EA03361CBF10468E
:1008700019460AD181EA030101F0004141F0FE412D
:1008800041F470014FF0000070BD41F0FE4141F4B1
:10089000780170BD70B54FF0FF0C4CF4E06C1CEAB1
:1008A00011541DBF1CEA135594EA0C0F95EA0C0F66
:1008B00000F0A7F8A4EB050481EA030E52EA033521
:1008C0004FEA013100F088804FEA03334FF0805542
:1008D00045EA131343EA12634FEA022245EA11156F
:1008E00045EA10654FEA00260EF000419D4208BF20
:1008F000964244F1FD0404F5407402D25B084FEACD
:100900003202B61A65EB03055B084FEA32024FF478
:1009100080104FF4002CB6EB020E75EB030E22BFD5
:10092000B61A754640EA0C005B084FEA3202B6EB95
:10093000020E75EB030E22BFB61A754640EA5C0044
:100940005B084FEA3202B6EB020E75EB030E22BFD4
:10095000B61A754640EA9C005B084FEA3202B6EBD5
:10096000020E75EB030E22BFB61A754640EADC0094
:1009700055EA060E18D04FEA051545EA16754FEAF6
:1009800006164FEAC30343EA52734FEAC2025FEA14
:100990001C1CC0D111F4801F0BD141EA00014FF0A3
:1009A00000004FF0004CB6E711F4801F04BF014374
:1009B0000020B4F1FD0C88BFBCF5E06F3FF6AFAE90
:1009C000B5EB030C04BFB6EB020C5FEA500C50F120
:1009D000000041EB045170BD0EF0004E4EEA1131A3
:1009E00014EB5C04C2BFD4EB0C0541EA045170BDAA
:1009F00041F480114FF0000E013C90E645EA060EEE
:100A00008DE60CEA135594EA0C0F08BF95EA0C0F1B
:100A10003FF43BAF94EA0C0F0AD150EA01347FF463
:100A200034AF95EA0C0F7FF425AF104619462CE73A
:100A300095EA0C0F06D152EA03353FF4FDAE10469D
:100A4000194622E750EA410618BF52EA43067FF4EE
:100A5000C5AE50EA41047FF40DAF52EA43057FF47E
:100A6000EBAE12E74FF0FF3C06E000BF4FF0010C89
:100A700002E000BF4FF0010C4DF804CD4FEA410CED
:100A80007FEA6C5C4FEA430C18BF7FEA6C5C1BD0BA
:100A900001B050EA410C0CBF52EA430C91EA030F3B
:100AA00002BF90EA020F0020704710F1000F91EA98
:100AB000030F58BF994208BF90422CBFD8176FEA66
:100AC000E37040F0010070474FEA410C7FEA6C5C34
:100AD00002D150EA013C07D14FEA430C7FEA6C5C3B
:100AE000D6D152EA033CD3D05DF8040B704700BF67
:100AF0008446104662468C461946634600E000BFB5
:100B000001B5FFF7B7FF002848BF10F1000F01BD86
:100B10004DF808EDFFF7F4FF0CBF012000205DF851
:100B200008FB00BF4DF808EDFFF7EAFF34BF0120D6
:100B300000205DF808FB00BF4DF808EDFFF7E0FF6F
:100B400094BF012000205DF808FB00BF4DF808EDC0
:100B5000FFF7CEFF94BF012000205DF808FB00BF27
:100B60004DF808EDFFF7C4FF34BF012000205DF809
:100B700008FB00BF4FEA410C7FEA6C5C02D150EAEF
:100B8000013C0AD14FEA430C7FEA6C5C02D152EA85
:100B9000033C02D14FF0000070474FF00100704756
:100BA0004FEA410212F5001215D211D56FF4787395
:100BB000B3EB625212D94FEAC12343F0004343EA38
:100BC000505311F0004F23FA02F018BF4042704713
:100BD0004FF00000704750EA013005D111F000409D
:100BE00008BF6FF0004070474FF00000704700BF33
:100BF00080F0004002E000BF81F0004142001FBFD2
:100C00005FEA410392EA030F7FEA226C7FEA236CDA
:100C10006AD04FEA1262D2EB1363C1BFD2184140CF
:100C200048404140B8BF5B42192B88BF704710F065
:100C3000004F40F4000020F07F4018BF404211F008
:100C4000004F41F4000121F07F4118BF494292EA70
:100C5000030F3FD0A2F1010241FA03FC10EB0C009C
:100C6000C3F1200301FA03F100F0004302D5494229
:100C700060EB4000B0F5000F13D3B0F1807F06D3D6
:100C800040084FEA310102F10102FE2A51D2B1F1CE
:100C9000004F40EBC25008BF20F0010040EA0300C3
:100CA0007047490040EB0000013A28BFB0F5000F43
:100CB000EDD2B0FA80FCACF1080CB2EB0C0200FAF9
:100CC0000CF0AABF00EBC25052421843BCBFD04048
:100CD0001843704792F0000F81F4000106BF80F4C2
:100CE00000000132013BB5E74FEA41037FEA226C85
:100CF00018BF7FEA236C21D092EA030F04D092F050
:100D0000000F08BF0846704790EA010F1CBF002083
:100D1000704712F07F4F04D1400028BF40F00040E0
:100D2000704712F100723CBF00F50000704700F000
:100D3000004343F0FE4040F4000070477FEA226227
:100D400016BF08467FEA23630146420206BF5FEAF8
:100D5000412390EA010F40F4800070474FF00003F8
:100D600004E000BF10F0004348BF40425FEA000CBF
:100D700008BF704743F0964301464FF000001CE067
:100D800050EA010208BF70474FF000030AE000BFBD
:100D900050EA010208BF704711F0004302D54042FB
:100DA00061EB41015FEA010C02BF8446014600206D
:100DB00043F0B64308BFA3F18053A3F50003BCFA88
:100DC0008CF2083AA3EBC25310DB01FA02FC634435
:100DD00000FA02FCC2F12002BCF1004F20FA02F23C
:100DE00043EB020008BF20F00100704702F120022F
:100DF00001FA02FCC2F1200250EA4C0021FA02F290
:100E000043EB020008BF20EADC7070474FEA400263
:100E1000B2F1FE4F0FD34FF09E03B3EB12620DD928
:100E20004FEA002343F0004310F0004F23FA02F092
:100E300018BF404270474FF00000704712F1610F39
:100E400001D1420205D110F0004008BF6FF0004010
:100E500070474FF00000704780B588B000AF0023A6
:100E60003B7100237B710023BB710023FB710023C6
:100E70003B7000237B700023BB700023FB700023BA
:100E80003B7700237B770023BB770023FB7700238E
:100E90003B7608237B760023BB760023FB7600237A
:100EA0003B7500237B750023BB750023FB75002376
:100EB0003B7400237B740023BB740023FB7400236A
:100EC0003B7300237B730023BB730023FB7300235E
:100ED0003B7208237B720023BB720023FB7200F07D
:100EE0000DFA034683F00103DBB2002B01D000238F
:100EF0005EE000F025FA034683F00103DBB2002B2D
:100F000001D0002354E03B1D1A462321202000F08D
:100F1000BBFA3B461A462721242000F0B5FA07F118
:100F20001C031A460321002000F0AEFA07F1180353
:100F30001A460721042000F0A7FA07F114031A4605
:100F40000B21082000F0A0FA07F110031A46132124
:100F5000102000F099FA07F10C031A46172114200B
:100F600000F092FA07F108031A461B21182000F03E
:100F70008BFA0421602000F063FA0121702000F058
:100F80005FFA00212A2000F05BFAE521292000F019
:100F900057FA8321282000F053FA00F0EFF90346B6
:100FA00083F00103DBB2002B01D0002300E001231A
:100FB00018462037BD4680BD80B584B000AF78604C
:100FC0000023FB73364B00221A70354B00225A70F7
:100FD000334B00229A70324B0022DA7000F0C2FAD2
:100FE00003461A462F4B1A702E4B1B7803F004034E
:100FF000DBB2002B15D17B6858687B681B78284AC8
:10100000194600F027F97B681A7A7B68093324496E
:10101000402000F063FA812000F08AFA0123FB737C
:1010200038E0204B1B7803F01003DBB2002B15D106
:101030007B6858687B681B78194A194600F00AF9E2
:101040007B681A7A7B6809331549422000F046FA1A
:10105000822000F06DFA0123FB731BE0114B1B781B
:1010600003F04003DBB2002B14D17B6858687B6827
:101070001B780B4A194600F0EDF87B681A7A7B68FA
:1010800009330749442000F029FA842000F050FA7F
:101090000123FB73FB7B18461037BD4680BD00BFA4
:1010A000100200200C02002080B588B000AF7860EC
:1010B0000023FB7700F072FA03463B733B7B23F07F
:1010C0003F03DBB2002B66D03B7B23F03F03DBB258
:1010D000402B0CBF01230023DAB23B7B23F03F03FC
:1010E000DBB2C02B0CBF01230023DBB21343DBB206
:1010F000002B07D007F110030D221946902000F0B5
:101100007DF90CE03B7B23F03F03DBB2802B06D163
:1011100007F110030D221946942000F06FF93B7B74
:1011200003F01803DBB2102B0CD17B6802221A707B
:10113000B87CF97C3A7C7B7C00F032F802467B6814
:101140005A600BE07B6801221A703B7C7A7C114666
:10115000184600F063F802467B685A603A7D7B6867
:101160001A727A7D7B685A72BA7D7B689A72FA7DB0
:101170007B68DA723A7E7B681A737A7E7B685A7370
:10118000BA7E7B689A73FA7E7B68DA733A7F7B68F3
:101190001A740123FB77FB7F18462037BD4680BDBC
:1011A00090B486B000AF0446084611461A4623465E
:1011B000FB710346BB710B467B7113463B710023E9
:1011C0007B6100233B613B7903F00303FB733B79B5
:1011D0005B09BB737B79DB003B61BB7B3A691344E2
:1011E0003B613B699B003B61FB7B3A6913443B617C
:1011F0003B691B023B61FB793A6913443B613B69E4
:101200001B023B61BB793A6913443B613B697B61DB
:101210007B6918461837BD4690BC704780B485B0CE
:1012200000AF03460A46FB711346BB710023FB6007
:10123000FB79DB00BB60BB795B09DBB21A46BB689C
:101240001344BB60BB68FB60FB6818461437BD469F
:1012500080BC704780B487B000AFF8600B467A60FE
:10126000FB720023FB75FB7A022B2ED1FB68DAB2EE
:101270007B68DA70FB681B0AFB60FB68DAB27B688C
:101280009A70FB681B0AFB60FB68DBB203F0030388
:10129000FB75FB68DB00FB60FB68DBB223F01F0320
:1012A000DAB2FB7D1344FB75FB7D0833FB75FB7DD8
:1012B00023F01403DAB27B685A70FB681B0AFB60E8
:1012C000FB68DAB27B681A7013E07B6800229A70C0
:1012D0007B680022DA70FB685B01FB60FB68DAB2B6
:1012E0007B685A70FB681B0AFB60FB68DAB27B689C
:1012F0001A7000BF1C37BD4680BC704780B582B0F5
:1013000000AF012240210C4801F0CEFA0A23FB7104
:101310000A4803F008F80346012B01D1012306E037
:10132000FB79013BFB71FB79002BF1D100231846BF
:101330000837BD4680BD00BF000C01407002002090
:1013400080B582B000AF80210F2000F079F80A2329
:10135000FB710E2000F030F8034603F0E003802B11
:1013600001D1012306E0FB79013BFB71FB79002BE6
:10137000EFD1002318460837BD4680BD80B582B046
:1013800000AF00210F2000F05BF80A23FB710E2054
:1013900000F012F8034603F0E003002B01D1012313
:1013A00006E0FB79013BFB71FB79002BEFD10023B9
:1013B00018460837BD4680BD80B584B000AF0346EF
:1013C000FB71002240210C4801F06EFA032000F06E
:1013D00001F9FB79184600F0FDF800F021F9034609
:1013E000FB7301224021044801F05EFAFB7B1846A2
:1013F0001037BD4680BD00BF000C014080B582B0F3
:1014000000AF03463960FB711346BB7100224021D7
:101410000A4801F049FAFB79184600F0DBF8BB797D
:101420001946386800F00CF901224021034801F008
:101430003BFA00BF0837BD4680BD00BF000C01402D
:1014400080B582B000AF03460A46FB711346BB71FC
:10145000002240210B4801F027FA022000F0BAF8E0
:10146000FB79184600F0B6F8BB79184600F0B2F8E0
:1014700001224021034801F017FA00BF0837BD469A
:1014800080BD00BF000C014080B582B000AF0346B4
:101490003A60FB710B46BB71002240210E4801F0FF
:1014A00003FA022000F096F8FB79184600F092F853
:1014B000BA79FB79D31ADBB20133DBB2194638684B
:1014C00000F09AF801224021034801F0EDF900BF35
:1014D0000837BD4680BD00BF000C014080B584B018
:1014E00000AFB9607B600346FB731346BB730022F9
:1014F00040210E4801F0D8F9FB7B184600F06AF84D
:101500000421B86800F078F8BB7B184600F062F858
:10151000BB7B1946786800F06FF801224021034830
:1015200001F0C2F900BF1037BD4680BD000C01407C
:1015300080B582B000AF0346FB710022402108480D
:1015400001F0B2F9FB79184600F044F8012240217D
:10155000034801F0A9F900BF0837BD4680BD00BFB0
:10156000000C014080B582B000AF002240210A4843
:1015700001F09AF9A02000F02DF800F051F8034690
:10158000FB7101224021044801F08EF9FB791846D5
:101590000837BD4680BD00BF000C014080B582B059
:1015A00000AF002240210A4801F07EF9B02000F08F
:1015B00011F800F035F80346FB7101224021044880
:1015C00001F072F9FB7918460837BD4680BD00BFAF
:1015D000000C014080B582B000AF0346FB71F91DDD
:1015E0000A230122034802F093FA00BF0837BD46E0
:1015F00080BD00BF7002002080B582B000AF78606F
:101600000B46FB70FB789AB20A237968034802F014
:101610007FFA00BF0837BD4680BD00BF70020020C2
:1016200080B582B000AFF91D0A230122034802F001
:10163000B2FBFB7918460837BD4680BD700200201A
:1016400080B582B000AF78600B46FB70FB789AB231
:101650000A237968034802F09EFB00BF0837BD46A5
:1016600080BD00BF7002002080B582B000AF03468D
:10167000FB71384AFB791370374B08221A70374BCD
:1016800000221A70334B1B78012B07D9334B1B7880
:1016900043F00803DAB2314B1A7006E02F4B1B7887
:1016A00043F00403DAB22D4B1A7000F07FF93220B8
:1016B00000F06EFE284B1B78184600F03DF94FF401
:1016C0007A7000F065FE302000F025F941F29410A8
:1016D00000F094F9302000F01EF941F2941000F06F
:1016E0008DF9302000F017F941F2941000F086F9DE
:1016F000202000F010F9642000F080F9174B1B78CF
:1017000043F02003DBB2184600F0C8F8144B042263
:101710001A7000F043F800F02BF8124B02221A70F6
:10172000104B1B7843F00403DBB2184600F0B6F808
:1017300041F2941000F062F90B49002000F070F8BB
:101740000A49012000F06CF800F01DF800BF0837CE
:10175000BD4680BD170200201802002014020020A0
:1017600015020020160200200000002008000020C2
:1017700080B500AF012000F091F84FF4FA6000F05E
:101780003DF900BF80BD80B500AF022000F086F8B3
:101790004FF4FA6000F032F900BF80BD80B500AFB1
:1017A000084B1B7843F00403DAB2064B1A70054B62
:1017B0001B7843F00803DBB2184600F06FF800BF57
:1017C00080BD00BF1502002080B500AF084B1B781C
:1017D00043F00203DAB2064B1A70054B1B7843F054
:1017E0000403DBB2184600F059F800BF80BD00BF0B
:1017F0001602002080B500AF084B1B7823F00203CF
:10180000DAB2064B1A70054B1B7843F00403DBB2C7
:10181000184600F043F800BF80BD00BF160200204C
:1018200080B584B000AF03463960FB71FB7903F0EB
:101830000703FB71FB79DB005BB243F040035BB253
:10184000DBB2184600F02AF80023FB6009E0FB68D1
:101850003A6813441B78184600F02EF8FB680133F1
:10186000FB60FB68072BF2DD00BF00BF1037BD46F1
:1018700080BD80B582B000AF786006E07B685A1CFE
:101880007A601B78184600F017F87B681B78002BED
:10189000F4D100BF00BF0837BD4680BD80B582B01F
:1018A00000AF0346FB71FB790021184600F012F8E7
:1018B00000BF0837BD4680BD80B582B000AF03468B
:1018C000FB71FB790121184600F004F800BF0837CE
:1018D000BD4680BD80B584B000AF03460A46FB71AB
:1018E0001346BB71FB7923F00F03FB73FB791B01DC
:1018F000BB73FA7BBB791343DBB2184600F00BF8DD
:10190000BA7BBB791343DBB2184600F004F800BF82
:101910001037BD4680BD80B582B000AF0346FB7175
:10192000FB79184600F008F8FB79184600F020F81B
:1019300000BF0837BD4680BD80B586B002AF034604
:10194000FB71094B1A78FB791343DBB2FB7307F188
:101950000F020A23009301234E21044801F000F9ED
:1019600000BF1037BD4680BD180200201C020020B9
:1019700080B582B000AF0346FB71FB7943F00403EE
:10198000DBB21846FFF7D8FF142000F037F8FB79D8
:1019900023F00403DBB21846FFF7CEFF142000F05B
:1019A0002DF800BF0837BD4680BD000080B400AFF1
:1019B000104BDB680F4A23F08073D3600D4BDB685C
:1019C0000C4A43F08073D3600B4B1B680A4A23F028
:1019D00001031360084B1B68074A43F001031360BF
:1019E000054B00225A6000BF00BF00BF00BFBD46CC
:1019F00080BC7047F0ED00E0001000E080B487B0DC
:101A000000AF78600D4B1B680D4AA2FB03239A0CB4
:101A10007B6802FB03F37B610A4B5B683B61094B0C
:101A20005A683B69D31AFB60FB687A699A42F6D818
:101A300000BF00BF1C37BD4680BC70471C000020A3
:101A400083DE1B43001000E02DE9B04394B004AFE7
:101A500000F03CFC00F0FCF800F0A4F900F03EF9C6
:101A600000F06AF9FFF7F8F90220FFF7FDFD714871
:101A7000FFF71AFB0346002B7DD06E4B5B7A1A46AC
:101A80006C4B9B7A1946104600F09CFBF863694B3F
:101A9000DB7A1A46674B1B7B1946104600F09EFB0B
:101AA000B863644B5B7B1A46624B9B7B19461046BE
:101AB00000F0A0FB7863FFF787FEF86BFEF768FD88
:101AC00080468946B86BFEF763FD04460D46786B89
:101AD000FEF75EFD02460B463846CDE90223CDE90E
:101AE000004542464B46544903F030FAFFF740FEAA
:101AF0003B461846FFF7BDFE4E4B1A784F4B1A7007
:101B00004C4B5B684D4A53604C4B08221A72F86B81
:101B100000F07CFB0346DAB2484B5A72F86B00F0D7
:101B20008DFB0346DAB2454B9A72B86B00F06EFB40
:101B30000346DAB2414BDA72B86B00F07FFB034622
:101B4000DAB23E4B1A73786B00F060FB0346DAB2F0
:101B50003A4B5A73786B00F071FB0346DAB2374B9D
:101B60009A73364B0022DA73344B00221A743348CE
:101B7000FFF722FA58E0FFF73DFE304B01221A70C2
:101B80002E4B0A225A602D4B08221A722C4B1B68CE
:101B9000184600F03BFB0346DAB2284B5A72284B3A
:101BA0001B68184600F04AFB0346DAB2234B9A72D0
:101BB000244B1B68184600F029FB0346DAB21F4B82
:101BC000DA72204B1B68184600F038FB0346DAB285
:101BD0001A4B1A731C4B1B68184600F017FB034680
:101BE000DAB2164B5A73184B1B68184600F026FBE6
:101BF0000346DAB2114B9A73104B0022DA730F4B83
:101C000000221A740D48FFF7D7F90C4B5B7A1A467D
:101C10000A4B9B7A38460D4903F098F9FFF7A8FD67
:101C20003B461846FFF725FE4FF47A7000F0B0FBF4
:101C30001DE700BFDC02002000730008C80200207E
:101C40001000002014000020180000202C73000851
:101C500080B590B000AF07F1180328220021184684
:101C600003F0D7F93B1D00221A605A609A60DA60CF
:101C70001A610123BB614FF48033FB6100233B6297
:101C80000123BB6202237B634FF48033BB634FF4B9
:101C9000E013FB6307F11803184601F0B9FA034695
:101CA000002B01D000F0DEF80F237B600223BB6025
:101CB0000023FB604FF480633B6100237B613B1D8D
:101CC0000221184601F026FD0346002B01D000F04A
:101CD000C9F800BF4037BD4680BD000080B500AFE9
:101CE000124B134A1A60114B124A5A600F4B0022D2
:101CF0009A600E4B0022DA600C4B4FF480421A615E
:101D00000A4B00225A61094B00229A61074B0022BC
:101D1000DA61064B00221A62044800F0DDFD03463A
:101D2000002B01D000F09EF800BF80BD1C020020F7
:101D300000540040A086010080B500AF174B184A40
:101D40001A60164B4FF482725A60144B00229A604C
:101D5000124B0022DA60114B00221A610F4B002255
:101D60005A610E4B4FF400729A610C4B3022DA61CB
:101D70000A4B00221A62094B00225A62074B0022CA
:101D80009A62064B0A22DA62044801F03DFE0346DD
:101D9000002B01D000F066F800BF80BD700200206B
:101DA0000030014080B588B000AF07F11003002279
:101DB0001A605A609A60DA60274B9B69264A43F0A2
:101DC00020039361244B9B6903F02003FB60FB68B5
:101DD000214B9B69204A43F0040393611E4B9B698E
:101DE00003F00403BB60BB681B4B9B691A4A43F0BA
:101DF00008039361184B9B6903F008037B607B68C1
:101E000000224FF44071154800F04EFD00224021A1
:101E1000134800F049FD4FF440733B6101237B619F
:101E20000023BB610223FB6107F1100319460B4835
:101E300000F0B6FB40233B6101237B610023BB61C3
:101E40000223FB6107F110031946054800F0A8FBC7
:101E500000BF2037BD4680BD001002400008014091
:101E6000000C014080B400AF72B600BFFEE7000076
:101E700080B483B000AF0E4B9B690D4A43F0010361
:101E800093610B4B9B6903F001037B607B68084BFC
:101E9000DB69074A43F08053D361054BDB6903F0EC
:101EA00080533B603B6800BF0C37BD4680BC704729
:101EB0000010024080B58AB000AF786007F11403CB
:101EC00000221A605A609A60DA607B681B681D4ABB
:101ED000934232D11C4B9B691B4A43F00803936128
:101EE000194B9B6903F008033B613B694FF4407356
:101EF0007B611223BB6103233B6207F11403194684
:101F0000124800F04DFB124B5B687B627B6A43F02A
:101F1000E0637B627B6A43F002037B620C4A7B6A6C
:101F20005360094BDB69084A43F40013D361064B45
:101F3000DB6903F40013FB60FB6800BF2837BD4674
:101F400080BD00BF0054004000100240000C014062
:101F50000000014080B588B000AF786007F1100341
:101F600000221A605A609A60DA607B681B681B4A1C
:101F700093422FD11A4B9B69194A43F480539361C2
:101F8000174B9B6903F48053FB60FB68144B9B6900
:101F9000134A43F004039361114B9B6903F004035C
:101FA000BB60BB68A0233B6102237B610323FB6111
:101FB00007F1100319460B4800F0F2FA40233B6189
:101FC00000237B610023BB6107F11003194605481C
:101FD00000F0E6FA00BF2037BD4680BD003001406A
:101FE000001002400008014080B400AFFEE780B45A
:101FF00000AFFEE780B400AFFEE780B400AFFEE7BD
:1020000080B400AFFEE780B400AF00BFBD4680BC27
:10201000704780B400AF00BFBD4680BC704780B43D
:1020200000AF00BFBD4680BC704780B500AF00F078
:1020300093F900BF80BD80B400AF01231846BD46B0
:1020400080BC704780B582B000AF7860396003F023
:1020500033F8034616221A604FF0FF33184608374C
:10206000BD4680BD80B582B000AF78604FF0FF31D3
:102070007868FFF7E7FFFEE780B586B000AFF8604D
:10208000B9607A6000237B610AE0AFF3008001460B
:10209000BB685A1CBA60CAB21A707B6901337B6193
:1020A0007A697B689A42F0DB7B6818461837BD4630
:1020B00080BD80B586B000AFF860B9607A6000235B
:1020C0007B6109E0BB685A1CBA601B781846AFF305
:1020D00000807B6901337B617A697B689A42F1DB1E
:1020E0007B6818461837BD4680BD80B483B000AF0A
:1020F00078604FF0FF3318460C37BD4680BC704700
:1021000080B483B000AF786039603B684FF4005210
:102110005A60002318460C37BD4680BC704780B417
:1021200083B000AF7860012318460C37BD4680BCF1
:10213000704780B485B000AFF860B9607A60002362
:1021400018461437BD4680BC7047000080B586B085
:1021500000AF7860144A154BD31A7B617B693B61F1
:10216000134B1B68002B02D1114B124A1A60104B03
:102170001A687B6813443A699A4207D202F09CFFBE
:1021800003460C221A604FF0FF3309E0084B1B682E
:10219000FB60074B1A687B681344054A1360FB68B1
:1021A00018461837BD4680BD0050002000040000CE
:1021B000F00200204804002080B400AF00BFBD46FC
:1021C00080BC704780B483B000AF786039604FF056
:1021D000000318460C37BD4680BC704780B483B0FE
:1021E00000AF786039604FF0000318460C37BD46E9
:1021F00080BC704780B483B000AF786039604FF026
:10220000000318460C37BD4680BC704780B582B0CD
:1022100000AF78607868FEF7BBF902460B461046BF
:10222000194604F0E1FF02460B4610461946FEF738
:10223000B7FC034618460837BD4680BD80B584B05C
:1022400000AF78607868FEF7E1FD03461846FEF7B8
:1022500089FD034619467868FEF7CEFC0346FB600D
:102260000649F868FDF77CFF0346FB60F868FEF757
:10227000CDFD034618461037BD4680BD0000C8425C
:10228000FFF79AFF0B480C490C4A002302E0D45890
:10229000C4500433C4188C42F9D3094A094C0023B2
:1022A00001E013600432A242FBD302F00BFFFFF700
:1022B000CBFB704700000020F0010020E47600080E
:1022C000F001002044040020FEE7000080B500AFCC
:1022D000084B1B68074A43F010031360032000F00B
:1022E0002BF90F2000F008F8FFF7C2FD0023184675
:1022F00080BD00BF0020024080B582B000AF786092
:10230000124B1A68124B1B7819464FF47A73B3FBC1
:10231000F1F3B2FBF3F3184600F035F90346002B56
:1023200001D001230EE07B680F2B0AD800227968C8
:102330004FF0FF3000F00BF9064A7B681360002372
:1023400000E0012318460837BD4680BD1C00002070
:10235000240000202000002080B400AF054B1B7833
:102360001A46054B1B681344034A136000BFBD4661
:1023700080BC704724000020F402002080B400AF2D
:10238000024B1B681846BD4680BC7047F402002013
:1023900080B584B000AF7860FFF7F0FFB8607B686D
:1023A000FB60FB68B3F1FF3F05D00A4B1B781A4670
:1023B000FB681344FB6000BFFFF7E0FF0246BB6809
:1023C000D31AFA689A42F7D800BF00BF1037BD464B
:1023D00080BD00BF2400002080B485B000AF7860CD
:1023E0007B6803F00703FB600C4BDB68BB60BA68DB
:1023F0004FF6FF031340BB60FB681A02BB68134330
:1024000043F0BF6343F40033BB60044ABB68D3604E
:1024100000BF1437BD4680BC704700BF00ED00E030
:1024200080B400AF044BDB681B0A03F007031846B7
:10243000BD4680BC704700BF00ED00E080B483B0B3
:1024400000AF03463960FB7197F90730002B0ADBB8
:102450003B68DAB20C4997F907301201D2B20B444B
:1024600083F800230AE03B68DAB20849FB7903F0FD
:102470000F03043B1201D2B20B441A7600BF0C3793
:10248000BD4680BC704700BF00E100E000ED00E009
:1024900080B489B000AFF860B9607A60FB6803F07F
:1024A0000703FB61FB69C3F10703042B28BF042367
:1024B000BB61FB690433062B02D9FB69033B00E0D7
:1024C00000237B614FF0FF32BB6902FA03F3DA436A
:1024D000BB681A407B699A404FF0FF317B6901FA73
:1024E00003F3D9437B680B40134318462437BD469A
:1024F00080BC704780B582B000AF78607B68013BDC
:10250000B3F1807F01D301230FE00A4A7B68013BCE
:1025100053600F214FF0FF30FFF790FF054B002273
:102520009A60044B07221A60002318460837BD46FC
:1025300080BD00BF10E000E080B582B000AF7860E1
:102540007868FFF749FF00BF0837BD4680BD80B5FA
:1025500086B000AF0346B9607A60FB7300237B61ED
:10256000FFF75EFF78617A68B9687869FFF790FFD6
:10257000024697F90F3011461846FFF75FFF00BF7C
:102580001837BD4680BD80B582B000AF78607868EE
:10259000FFF7B0FF034618460837BD4680BD000070
:1025A00080B48BB000AF7860396000237B62002379
:1025B0003B6269E101227B6A02FA03F3FB613B683B
:1025C0001B68FA691340BB61BA69FB699A4240F023
:1025D00058813B685B689A4A93425ED0984A93421E
:1025E00075D8984A934258D0964A93426FD8964AE3
:1025F000934252D0944A934269D8944A93424CD021
:10260000924A934263D8924A934246D0904A934268
:102610005DD8122B2AD8122B59D801A252F823F0D8
:102620009B2600087526000887260008C926000892
:10263000CF260008CF260008CF260008CF260008A6
:10264000CF260008CF260008CF260008CF26000896
:10265000CF260008CF260008CF260008CF26000886
:10266000CF2600087D26000891260008794A93426B
:1026700013D02CE03B68DB683B6229E03B68DB68F9
:1026800004333B6224E03B68DB6808333B621FE0B5
:102690003B68DB680C333B621AE03B689B68002BAD
:1026A00002D104233B6213E03B689B68012B05D1F8
:1026B00008233B627B68FA691A6109E008233B62E0
:1026C0007B68FA695A6103E000233B6200E000BFC7
:1026D000BB69FF2B01D87B6801E07B6804337B6119
:1026E000BB69FF2B02D87B6A9B0002E07B6A083B38
:1026F0009B003B617B691A680F213B6901FA03F378
:10270000DB431A40396A3B6901FA03F31A437B69D8
:102710001A603B685B6803F08053002B00F0B180C7
:102720004D4B9B694C4A43F0010393614A4B9B69B3
:1027300003F00103BB60BB68484A7B6A9B08023315
:1027400052F82330FB607B6A03F003039B000F22E7
:1027500002FA03F3DB43FA681340FB607B68404AEC
:10276000934213D07B683F4A93420DD07B683E4A28
:10277000934207D07B683D4A934201D1032306E090
:10278000042304E0022302E0012300E000237A6A2C
:1027900002F0030292009340FA681343FB602F4952
:1027A0007B6A9B080233FA6841F823203B685B6828
:1027B00003F48013002B06D02D4B9A682C49BB697B
:1027C00013438B6006E02A4B9A68BB69DB432849B8
:1027D00013408B603B685B6803F40013002B06D04A
:1027E000234BDA682249BB691343CB6006E0204BD8
:1027F000DA68BB69DB431E491340CB603B685B680A
:1028000003F40033002B06D0194B5A681849BB69F2
:1028100013434B6006E0164B5A68BB69DB4314490F
:1028200013404B603B685B6803F48033002B21D07E
:102830000F4B1A680E49BB6913430B6021E000BFC0
:1028400000003210000031100000221000002110A2
:1028500000001210000011100010024000000140A2
:1028600000080140000C014000100140001401402C
:10287000000401400B4B1A68BB69DB430949134054
:102880000B607B6A01337B623B681A687B6A22FAC1
:1028900003F3002B7FF48EAE00BF00BF2C37BD4684
:1028A00080BC70470004014080B483B000AF786002
:1028B0000B467B8013467B707B78002B03D07A8895
:1028C0007B681A6103E07B881A047B681A6100BF89
:1028D0000C37BD4680BC704780B584B000AF7860CF
:1028E0007B68002B01D101232BE17B6893F83D30FD
:1028F000DBB2002B06D17B68002283F83C2078688D
:10290000FFF7D8FA7B68242283F83D207B681B6898
:102910001A687B681B6822F001021A607B681B68DA
:102920001A687B681B6842F400421A607B681B6867
:102930001A687B681B6822F400421A6001F032F8C2
:10294000F8607B685B68814A934207D8FB68804ADD
:10295000934294BF01230023DBB206E0FB687D4A6B
:10296000934294BF01230023DBB2002B01D001234B
:10297000E7E0FB68784AA2FB03239B0CBB607B6803
:102980001B685B6823F03F017B681B68BA680A43D9
:102990005A607B681B681B6A23F03F017B685B6899
:1029A0006A4A934202D8BB68013309E0BB684FF41E
:1029B000967202FB03F3694AA2FB03239B090133CE
:1029C0007A6812680B4313627B681B68DB6923F427
:1029D0004F4222F0FF027B685B685C498B4219D84A
:1029E000FB68591E7B685B685B00B1FBF3F3591C05
:1029F00040F6FC730B40002B0AD0FB68591E7B6825
:102A00005B685B00B1FBF3F30133C3F30B0351E0ED
:102A100004234FE07B689B68002B11D1FB68581E94
:102A20007B6859680B465B000B44B0FBF3F3013342
:102A3000C3F30B03002B0CBF01230023DBB212E016
:102A4000FB68581E7B6859680B469B000B44990035
:102A50000B44B0FBF3F30133C3F30B03002B0CBFA8
:102A600001230023DBB2002B01D0012322E07B688D
:102A70009B68002B0ED1FB68581E7B6859680B467B
:102A80005B000B44B0FBF3F30133C3F30B0343F4DC
:102A900000430FE0FB68581E7B6859680B469B009B
:102AA0000B4499000B44B0FBF3F30133C3F30B0366
:102AB00043F44043796809681343CB617B681B6822
:102AC0001B6823F0C0017B68DA697B681B6A1A43C4
:102AD0007B681B680A431A607B681B689B6823F449
:102AE000034323F0FF037A6811697A68D2681143BF
:102AF0007A6812680B4393607B681B68DB6823F07D
:102B0000FF017B685A697B689B691A437B681B6875
:102B10000A43DA607B681B681A687B681B6842F0AE
:102B200001021A607B6800221A647B68202283F805
:102B30003D207B6800221A637B68002283F83E20D8
:102B4000002318461037BD4680BD00BFA086010097
:102B50007F841E00FF083D0083DE1B43D34D6210BF
:102B600080B588B002AFF8607A601A460B467B8168
:102B700013463B81FFF702FC7861FB6893F83D3018
:102B8000DBB2202B40F0E0807B6900931923012207
:102B90007049F86800F064F90346002B01D0022365
:102BA000D3E0FB6893F83C30012B01D10223CCE049
:102BB000FB68012283F83C20FB681B681B6803F05C
:102BC0000103012B07D0FB681B681A68FB681B68B0
:102BD00042F001021A60FB681B681A68FB681B68F8
:102BE00022F400621A60FB68212283F83D20FB6812
:102BF000102283F83E20FB6800221A64FB687A6882
:102C00005A62FB683A895A85FB685B8D9AB2FB6809
:102C10001A85FB68504ADA6279897B693A6AF868F2
:102C200000F09CF80346002B01D001238DE0002327
:102C30003B61FB681B685B693B61FB681B689B69C8
:102C40003B613B6966E07A69396AF86800F022FA0C
:102C50000346002B0DD0FB681B6C042B07D1FB68CF
:102C60001B681A68FB681B6842F400721A60012333
:102C70006BE0FB685B6A1A78FB681B681A61FB688B
:102C80005B6A5A1CFB685A62FB685B8D9BB2013B16
:102C90009AB2FB685A85FB681B8D013B9AB2FB68B0
:102CA0001A85FB681B685B6903F00403042B1BD1C6
:102CB000FB681B8D002B17D0FB685B6A1A78FB68DA
:102CC0001B681A61FB685B6A5A1CFB685A62FB68E6
:102CD0005B8D9BB2013B9AB2FB685A85FB681B8DEA
:102CE000013B9AB2FB681A857A69396AF86800F084
:102CF00019FA0346002B0DD0FB681B6C042B07D17F
:102D0000FB681B681A68FB681B6842F400721A6053
:102D100001231AE0FB681B8D002B94D1FB681B6814
:102D20001A68FB681B6842F400721A60FB68202274
:102D300083F83D20FB68002283F83E20FB680022D8
:102D400083F83C20002300E0022318461837BD46D4
:102D500080BD00BF020010000000FFFF80B588B0FA
:102D600002AFF8607A603B600B467B81FB68DB6AF0
:102D70007B617B69082B06D07B69012B03D07B69C3
:102D800013F5803F08D1FB681B681A68FB681B6855
:102D900042F480721A600BE0FB681B6B122B07D1A8
:102DA000FB681B681A68FB681B6842F480721A6033
:102DB0003B6800937B6800224FF00111F86800F037
:102DC0004FF80346002B0DD0FB681B681B6803F40B
:102DD0008073B3F5807F03D1FB684FF400721A64EF
:102DE000032335E0FB681B69B3F5804F08D17B896D
:102DF000DBB21A46FB681B6802F0FE021A611BE098
:102E00007B89DB11DBB203F00603DBB263F00F0357
:102E1000DAB2FB681B681A613B687A680E49F86889
:102E200000F098F80346002B01D0012310E07B89C5
:102E3000DAB2FB681B681A613B687A680749F86870
:102E400000F088F80346002B01D0012300E00023A6
:102E500018461837BD4680BD080001000200010079
:102E600080B584B000AFF860B9603B601346FB7179
:102E700048E03B68B3F1FF3F44D0FFF77FFA0246DA
:102E8000BB69D31A3A689A4202D33B68002B39D106
:102E9000BB681B0CDBB2012B0DD1FB681B685B69A7
:102EA000DA43BB6813409BB2002B0CBF0123002305
:102EB000DBB21A460CE0FB681B689B69DA43BB680F
:102EC00013409BB2002B0CBF01230023DBB21A4638
:102ED000FB799A4216D1FB6800221A63FB68202214
:102EE00083F83D20FB68002283F83E20FB681B6CC2
:102EF00043F02002FB681A64FB68002283F83C2040
:102F0000012323E0BB681B0CDBB2012B0DD1FB6856
:102F10001B685B69DA43BB6813409BB2002B0CBF94
:102F200001230023DBB21A460CE0FB681B689B6997
:102F3000DA43BB6813409BB2002B0CBF0123002374
:102F4000DBB21A46FB799A4293D000231846103719
:102F5000BD4680BD80B584B000AFF860B9607A60CE
:102F60003B6071E0FB681B685B6903F48063B3F549
:102F7000806F23D1FB681B681A68FB681B6842F4EA
:102F800000721A60FB681B686FF480625A61FB680C
:102F900000221A63FB68202283F83D20FB68002290
:102FA00083F83E20FB681B6C43F00402FB681A6444
:102FB000FB68002283F83C20012367E07B68B3F1C3
:102FC000FF3F41D0FFF7DAF902463B68D31A7A682F
:102FD0009A4202D37B68002B36D1BB681B0CDBB254
:102FE000012B0CD1FB681B685B69DA43BB6813409B
:102FF0009BB2002B14BF01230023DBB20BE0FB6864
:103000001B689B69DA43BB6813409BB2002B14BF5B
:1030100001230023DBB2002B16D0FB6800221A63C9
:10302000FB68202283F83D20FB68002283F83E20C5
:10303000FB681B6C43F02002FB681A64FB680022EB
:1030400083F83C20012321E0BB681B0CDBB2012B81
:103050000CD1FB681B685B69DA43BB6813409BB209
:10306000002B14BF01230023DBB20BE0FB681B68BD
:103070009B69DA43BB6813409BB2002B14BF01234A
:103080000023DBB2002B7FF46DAF0023184610370E
:10309000BD4680BD80B584B000AFF860B9607A608D
:1030A00034E0F86800F086F80346002B01D00123D5
:1030B00034E0BB68B3F1FF3F28D0FFF75FF9024669
:1030C0007B68D31ABA689A4202D3BB68002B1DD121
:1030D000FB681B685B6903F08003802B16D0FB68DC
:1030E00000221A63FB68202283F83D20FB6800223F
:1030F00083F83E20FB681B6C43F02002FB681A64D7
:10310000FB68002283F83C20012307E0FB681B6872
:103110005B6903F08003802BC3D10023184610376E
:10312000BD4680BD80B584B000AFF860B9607A60FC
:1031300034E0F86800F03EF80346002B01D001238C
:1031400034E0BB68B3F1FF3F28D0FFF717F9024620
:103150007B68D31ABA689A4202D3BB68002B1DD190
:10316000FB681B685B6903F00403042B16D0FB6843
:1031700000221A63FB68202283F83D20FB680022AE
:1031800083F83E20FB681B6C43F02002FB681A6446
:10319000FB68002283F83C20012307E0FB681B68E2
:1031A0005B6903F00403042BC3D1002318461037D6
:1031B000BD4680BD80B483B000AF78607B681B687B
:1031C0005B6903F48063B3F5806F1BD17B681B6878
:1031D0006FF480625A617B6800221A637B68202248
:1031E00083F83D207B68002283F83E207B681B6CBF
:1031F00043F004027B681A647B68002283F83C2059
:10320000012300E0002318460C37BD4680BC704700
:1032100080B586B000AF78607B68002B01D10123B8
:1032200072E27B681B6803F00103002B00F08780CB
:10323000924B5B6803F00C03042B0CD08F4B5B6844
:1032400003F00C03082B12D18C4B5B6803F4803322
:10325000B3F5803F0BD1894B1B6803F40033002B7F
:103260006CD07B685B68002B68D101234CE27B68E3
:103270005B68B3F5803F06D1804B1B687F4A43F4FF
:10328000803313602EE07B685B68002B0CD17B4B96
:103290001B687A4A23F480331360784B1B68774AA3
:1032A00023F4802313601DE07B685B68B3F5A02FD7
:1032B0000CD1724B1B68714A43F4802313606F4B2F
:1032C0001B686E4A43F4803313600BE06B4B1B6842
:1032D0006A4A23F480331360684B1B68674A23F4FF
:1032E000802313607B685B68002B13D0FFF746F8E0
:1032F000386108E0FFF742F802463B69D31A642BB5
:1033000001D9032300E25D4B1B6803F40033002B5B
:10331000F0D014E0FFF732F8386108E0FFF72EF83C
:1033200002463B69D31A642B01D90323ECE1534BCA
:103330001B6803F40033002BF0D100E000BF7B6872
:103340001B6803F00203002B63D04C4B5B6803F057
:103350000C03002B0BD0494B5B6803F00C03082BCC
:103360001CD1464B5B6803F48033002B16D1434BD2
:103370001B6803F00203002B05D07B681B69012B3F
:1033800001D00123C0E13D4B1B6823F0F8027B68AC
:103390005B69DB00394913430B603AE07B681B69CA
:1033A000002B20D0364B01221A60FEF7E7FF386170
:1033B00008E0FEF7E3FF02463B69D31A022B01D96E
:1033C0000323A1E12D4B1B6803F00203002BF0D077
:1033D0002A4B1B6823F0F8027B685B69DB002749F6
:1033E00013430B6015E0264B00221A60FEF7C6FF60
:1033F000386108E0FEF7C2FF02463B69D31A022B90
:1034000001D9032380E11D4B1B6803F00203002B4D
:10341000F0D17B681B6803F00803002B3AD07B686F
:103420009B69002B19D0174B01221A60FEF7A6FFEB
:10343000386108E0FEF7A2FF02463B69D31A022B6F
:1034400001D9032360E10D4B5B6A03F00203002BFB
:10345000F0D0012000F0BAFA1CE00A4B00221A60FA
:10346000FEF78CFF38610FE0FEF788FF02463B69EC
:10347000D31A022B08D9032346E100BF00100240F3
:103480000000424280044242924B5B6A03F0020316
:10349000002BE9D17B681B6803F00403002B00F0CC
:1034A000A6800023FB758B4BDB6903F08053002B58
:1034B0000DD1884BDB69874A43F08053D361854B3C
:1034C000DB6903F08053BB60BB680123FB75824B53
:1034D0001B6803F48073002B18D17F4B1B687E4A56
:1034E00043F480731360FEF749FF386108E0FEF78C
:1034F00045FF02463B69D31A642B01D9032303E13C
:10350000754B1B6803F48073002BF0D07B68DB687D
:10351000012B06D16F4B1B6A6E4A43F00103136205
:103520002DE07B68DB68002B0CD16A4B1B6A694A73
:1035300023F001031362674B1B6A664A23F00403FE
:1035400013621CE07B68DB68052B0CD1614B1B6AA6
:10355000604A43F0040313625E4B1B6A5D4A43F00A
:10356000010313620BE05B4B1B6A5A4A23F0010311
:103570001362584B1B6A574A23F0040313627B689B
:10358000DB68002B15D0FEF7F9FE38610AE0FEF784
:10359000F5FE02463B69D31A41F28832934201D9C3
:1035A0000323B1E04B4B1B6A03F00203002BEED068
:1035B00014E0FEF7E3FE38610AE0FEF7DFFE0246A4
:1035C0003B69D31A41F28832934201D903239BE02D
:1035D000404B1B6A03F00203002BEED1FB7D012B55
:1035E00005D13C4BDB693B4A23F08053D3617B68B8
:1035F000DB69002B00F08780364B5B6803F00C031F
:10360000082B61D07B68DB69022B46D1334B00224B
:103610001A60FEF7B3FE386108E0FEF7AFFE02461F
:103620003B69D31A022B01D903236DE0294B1B6898
:1036300003F00073002BF0D17B681B6AB3F5803F69
:1036400008D1244B5B6823F400327B689B682149D6
:1036500013434B601F4B5B6823F474127B68196A39
:103660007B685B6A0B431B4913434B601B4B012276
:103670001A60FEF783FE386108E0FEF77FFE02461F
:103680003B69D31A022B01D903233DE0114B1B6880
:1036900003F00073002BF0D035E0104B00221A60CD
:1036A000FEF76CFE386108E0FEF768FE02463B69F3
:1036B000D31A022B01D9032326E0064B1B6803F023
:1036C0000073002BF0D11EE07B68DB69012B07D172
:1036D000012319E0001002400070004060004242E7
:1036E0000B4B5B68FB60FB6803F480327B681B6AF2
:1036F0009A4206D1FB6803F470127B685B6A9A42B7
:1037000001D0012300E0002318461837BD4680BDD4
:103710000010024080B584B000AF786039607B68EB
:10372000002B01D10123D0E06A4B1B6803F0070393
:103730003A689A4210D9674B1B6823F00702654923
:103740003B6813430B60634B1B6803F007033A6845
:103750009A4201D00123B8E07B681B6803F00203A2
:10376000002B20D07B681B6803F00403002B05D0DE
:10377000594B5B68584A43F4E06353607B681B68AD
:1037800003F00803002B05D0534B5B68524A43F407
:1037900060535360504B5B6823F0F0027B689B687A
:1037A0004D4913434B607B681B6803F00103002BFA
:1037B00040D07B685B68012B07D1474B1B6803F443
:1037C0000033002B15D101237FE07B685B68022B5F
:1037D00007D1414B1B6803F00073002B09D1012373
:1037E00073E03D4B1B6803F00203002B01D1012362
:1037F0006BE0394B5B6823F003027B685B683649FA
:1038000013434B60FEF7BAFDF8600AE0FEF7B6FD21
:103810000246FB68D31A41F28832934201D903234E
:1038200053E02D4B5B6803F00C027B685B689B00E8
:103830009A42EBD1274B1B6803F007033A689A4280
:1038400010D2244B1B6823F0070222493B68134324
:103850000B60204B1B6803F007033A689A4201D0C3
:10386000012332E07B681B6803F00403002B08D0BF
:10387000194B5B6823F4E0627B68DB6816491343ED
:103880004B607B681B6803F00803002B09D0124BC8
:103890005B6823F460527B681B69DB000E491343AD
:1038A0004B6000F021F802460B4B5B681B0903F0EC
:1038B0000F030A49CB5C22FA03F3094A1360094B50
:1038C0001B681846FEF718FD002318461037BD4642
:1038D00080BD00BF0020024000100240407300087D
:1038E0001C0000202000002080B487B000AF00231F
:1038F000FB600023BB6000237B6100237B6000230F
:103900003B611E4B5B68FB60FB6803F00C03042B00
:1039100002D0082B03D027E0194B3B6127E0FB685E
:103920009B0C03F00F03174AD35C7B60FB6803F426
:103930008033002B10D0114B5B685B0C03F001034C
:10394000114AD35CBB607B680D4A03FB02F2BB6883
:10395000B2FBF3F37B6104E07B680C4A02FB03F3E8
:103960007B617B693B6102E0054B3B6100BF3B69CA
:1039700018461C37BD4680BC704700BF001002408F
:1039800000127A00587300086873000800093D00AF
:1039900080B400AF024B1B681846BD4680BC704720
:1039A0001C00002080B500AFFFF7F2FF0246054B78
:1039B0005B681B0A03F007030349CB5C22FA03F39D
:1039C000184680BD001002405073000880B485B0D6
:1039D00000AF78600A4B1B680A4AA2FB03235B0A0C
:1039E0007A6802FB03F3FB6000BFFB685A1EFA60B3
:1039F000002BF9D100BF00BF1437BD4680BC704713
:103A00001C000020D34D621080B582B000AF7860FA
:103A10007B68002B01D1012376E07B685B6A002B79
:103A200008D17B685B68B3F5827F09D07B68002290
:103A3000DA6105E07B6800221A617B6800225A6126
:103A40007B6800229A627B6893F85130DBB2002BCE
:103A500006D17B68002283F850207868FEF77AFA56
:103A60007B68022283F851207B681B681A687B6898
:103A70001B6822F040021A607B685B6803F4827264
:103A80007B689B6803F404431A437B68DB6803F498
:103A900000631A437B681B6903F002031A437B68C7
:103AA0005B6903F001031A437B689B6903F40073AD
:103AB0001A437B68DB6903F038031A437B681B6A8F
:103AC00003F0800342EA03017B689B6A03F400521F
:103AD0007B681B680A431A607B689B691A0C7B68C9
:103AE0001B6802F004025A607B681B68DA697B6815
:103AF0001B6822F40062DA617B6800225A657B68E9
:103B0000012283F85120002318460837BD4680BDA6
:103B100080B588B000AFF860B9603B601346FB80A9
:103B20000023FB77FB6893F85030012B01D102236F
:103B30002DE1FB68012283F85020FEF71FFCB861DD
:103B4000FB88FB82FB6893F85130DBB2012B02D07B
:103B50000223FB7716E1BB68002B02D0FB88002B09
:103B600002D10123FB770DE1FB68032283F851208A
:103B7000FB6800225A65FB68BA681A63FB68FA881A
:103B80009A86FB68FA88DA86FB6800229A63FB68EB
:103B900000229A87FB680022DA87FB6800225A64B9
:103BA000FB6800221A64FB689B68B3F5004F0FD1D5
:103BB000FB681B681A68FB681B6822F040021A60E9
:103BC000FB681B681A68FB681B6842F480421A6035
:103BD000FB681B681B6803F04003402B07D0FB68A1
:103BE0001B681A68FB681B6842F040021A60FB6899
:103BF000DB68B3F5006F4FD1FB685B68002B02D028
:103C0000FB8A012B42D1FB681B6B1A88FB681B687F
:103C1000DA60FB681B6B9A1CFB681A63FB68DB8E1F
:103C20009BB2013B9AB2FB68DA862FE0FB681B6807
:103C30009B6803F00203022B12D1FB681B6B1A88EE
:103C4000FB681B68DA60FB681B6B9A1CFB681A63D5
:103C5000FB68DB8E9BB2013B9AB2FB68DA8615E00B
:103C6000FEF78CFB0246BB69D31A3A689A4203D826
:103C70003B68B3F1FF3F02D13B68002B06D1032321
:103C8000FB77FB68012283F851207BE0FB68DB8E29
:103C90009BB2002BCAD150E0FB685B68002B02D0BE
:103CA000FB8A012B44D1FB681A6BFB681B680C3341
:103CB00012781A70FB681B6B5A1CFB681A63FB684E
:103CC000DB8E9BB2013B9AB2FB68DA8630E0FB6880
:103CD0001B689B6803F00203022B13D1FB681A6B6D
:103CE000FB681B680C3312781A70FB681B6B5A1C3C
:103CF000FB681A63FB68DB8E9BB2013B9AB2FB68E0
:103D0000DA8615E0FEF73AFB0246BB69D31A3A6839
:103D10009A4203D83B68B3F1FF3F02D13B68002BC6
:103D200006D10323FB77FB68012283F8512029E0A9
:103D3000FB68DB8E9BB2002BC9D1BA693968F86881
:103D400000F0D8FB0346002B02D0FB6820225A6506
:103D5000FB689B68002B0AD100233B61FB681B6852
:103D6000DB683B61FB681B689B683B613B69FB68E8
:103D70005B6D002B02D00123FB7703E0FB6801227F
:103D800083F85120FB68002283F85020FB7F1846FF
:103D90002037BD4680BD80B588B002AFF860B960FD
:103DA0003B601346FB800023FB75FB6893F85130A2
:103DB000DBB2012B02D00223FB75FBE0FB685B68E2
:103DC000B3F5827F12D1FB689B68002B0ED1FB6894
:103DD000042283F85120FA883B6800931346BA689E
:103DE000B968F86800F0EFF80346E8E0FB6893F87C
:103DF0005030012B01D10223E1E0FB68012283F85E
:103E00005020FEF7BBFA3861BB68002B02D0FB885C
:103E1000002B02D10123FB75CCE0FB68042283F860
:103E20005120FB6800225A65FB68BA689A63FB68F8
:103E3000FA889A87FB68FA88DA87FB6800221A6397
:103E4000FB6800229A86FB680022DA86FB68002263
:103E50001A64FB6800225A64FB689B68B3F5004F44
:103E60000FD1FB681B681A68FB681B6822F04002D0
:103E70001A60FB681B681A68FB681B6822F48042A2
:103E80001A60FB681B681B6803F04003402B07D0D7
:103E9000FB681B681A68FB681B6842F040021A60E6
:103EA000FB68DB68002B6AD132E0FB681B689B680B
:103EB00003F00103012B15D1FB681B6803F10C0211
:103EC000FB689B6B1278D2B21A70FB689B6B5A1C12
:103ED000FB689A63FB68DB8F9BB2013B9AB2FB687D
:103EE000DA8715E0FEF74AFA02463B69D31A3A68C8
:103EF0009A4203D83B68B3F1FF3F02D13B68002BE5
:103F000006D10323FB75FB68012283F8512051E0A1
:103F1000FB68DB8F9BB2002BC7D135E0FB681B68C9
:103F20009B6803F00103012B13D1FB681B68DA685F
:103F3000FB689B6B92B21A80FB689B6B9A1CFB68B8
:103F40009A63FB68DB8F9BB2013B9AB2FB68DA870E
:103F500015E0FEF713FA02463B69D31A3A689A4213
:103F600003D83B68B3F1FF3F02D13B68002B06D179
:103F70000323FB75FB68012283F851201AE0FB68DC
:103F8000DB8F9BB2002BC9D13A693968F86800F021
:103F90005FFA0346002B02D0FB6820225A65FB68BB
:103FA0005B6D002B02D00123FB7503E0FB6801224F
:103FB00083F85120FB68002283F85020FB7D1846CF
:103FC0001837BD4680BD80B58CB000AFF860B960D1
:103FD0007A607B800123FB62002387F82B30FB682B
:103FE00093F85030012B01D1022398E1FB680122A4
:103FF00083F85020FEF7C2F97862FB6893F85130DD
:1040000087F82330FB685B68FB617B887B8397F8CC
:104010002330012B0FD0FB69B3F5827F07D1FB68FA
:104020009B68002B03D197F82330042B03D0022385
:1040300087F82B306DE1BB68002B05D07B68002B27
:1040400002D07B88002B03D1012387F82B3060E15D
:10405000FB6893F85130DBB2042B03D0FB680522D8
:1040600083F85120FB6800225A65FB687A689A63DE
:10407000FB687A88DA87FB687A889A87FB68BA686F
:104080001A63FB687A88DA86FB687A889A86FB6806
:1040900000221A64FB6800225A64FB681B681B68D4
:1040A00003F04003402B07D0FB681B681A68FB68CD
:1040B0001B6842F040021A60FB68DB68B3F5006FD2
:1040C0007CD1FB685B68002B02D07B8B012B6AD113
:1040D000FB681B6B1A88FB681B68DA60FB681B6B4C
:1040E0009A1CFB681A63FB68DB8E9BB2013B9AB299
:1040F000FB68DA8657E0FB681B689B6803F00203E5
:10410000022B1BD1FB68DB8E9BB2002B16D0FB6A07
:10411000012B13D1FB681B6B1A88FB681B68DA60E4
:10412000FB681B6B9A1CFB681A63FB68DB8E9BB2F7
:10413000013B9AB2FB68DA860023FB62FB681B68CE
:104140009B6803F00103012B19D1FB68DB8F9BB245
:10415000002B14D0FB681B68DA68FB689B6B92B27B
:104160001A80FB689B6B9A1CFB689A63FB68DB8F69
:104170009BB2013B9AB2FB68DA870123FB62FEF730
:10418000FDF802467B6AD31ABA6B9A420BD8BB6B16
:10419000B3F1FF3F07D0032387F82B30FB680122E0
:1041A00083F85120B5E0FB68DB8E9BB2002BA2D1D7
:1041B000FB68DB8F9BB2002B9DD180E0FB685B68C6
:1041C000002B02D07B8B012B6FD1FB681A6BFB6835
:1041D0001B680C3312781A70FB681B6B5A1CFB6847
:1041E0001A63FB68DB8E9BB2013B9AB2FB68DA86EE
:1041F0005BE0FB681B689B6803F00203022B1CD189
:10420000FB68DB8E9BB2002B17D0FB6A012B14D10D
:10421000FB681A6BFB681B680C3312781A70FB681A
:104220001B6B5A1CFB681A63FB68DB8E9BB2013B5D
:104230009AB2FB68DA860023FB62FB681B689B6806
:1042400003F00103012B19D1FB68DB8F9BB2002B1C
:1042500014D0FB681B68DA68FB689B6BD2B21A70DB
:10426000FB689B6B5A1CFB689A63FB68DB8F9BB2F5
:10427000013B9AB2FB68DA870123FB62FEF77EF806
:1042800002467B6AD31ABA6B9A4203D8BB6BB3F16E
:10429000FF3F02D1BB6B002B07D1032387F82B30E4
:1042A000FB68012283F8512033E0FB68DB8E9BB270
:1042B000002B9ED1FB68DB8F9BB2002B99D17A6AD1
:1042C000B96BF86800F016F90346002B06D00123FD
:1042D00087F82B30FB6820225A651AE0FB689B6840
:1042E000002B0AD100237B61FB681B68DB687B61C4
:1042F000FB681B689B687B617B69FB685B6D002BBF
:1043000003D0012387F82B3003E0FB68012283F8F8
:104310005120FB68002283F8502097F82B30184674
:104320003037BD4680BD80B483B000AF78607B6815
:1043300093F85130DBB218460C37BD4680BC70474D
:1043400080B588B000AFF860B9603B601346FB7180
:10435000FEF714F80246BB6A9B1A3A681344FB61E5
:10436000FEF70CF8B861394B1B685B011B0DFA694D
:1043700002FB03F37B6154E03B68B3F1FF3F50D095
:10438000FDF7FCFF0246BB69D31AFA699A4202D9CB
:10439000FB69002B3DD1FB681B685A68FB681B68F2
:1043A00022F0E0025A60FB685B68B3F5827F11D1AE
:1043B000FB689B68B3F5004F04D0FB689B68B3F5BE
:1043C000806F07D1FB681B681A68FB681B6822F0C6
:1043D00040021A60FB689B6AB3F5005F0FD1FB686F
:1043E0001B681A68FB681B6822F400521A60FB689D
:1043F0001B681A68FB681B6842F400521A60FB686D
:10440000012283F85120FB68002283F85020032307
:1044100017E07B69002B01D10023FB617B69013B25
:104420007B61FB681B689A68BB681340BA689A4254
:104430000CBF01230023DBB21A46FB799A429BD1C1
:10444000002318462037BD4680BD00BF1C00002059
:1044500080B586B002AFF860B9607A60FB685B68CF
:10446000B3F5827F11D1FB689B68B3F5004F04D090
:10447000FB689B68B3F5806F07D1FB681B681A68FF
:10448000FB681B6822F040021A60FB685B68B3F5AA
:10449000827F17D1FB689B68B3F5806F12D17B6870
:1044A0000093BB6800220121F868FFF749FF03462B
:1044B000002B1AD0FB685B6D43F02002FB685A6545
:1044C000032313E07B680093BB6800228021F86817
:1044D000FFF736FF0346002B07D0FB685B6D43F008
:1044E0002002FB685A65032300E0002318461037BA
:1044F000BD4680BD80B586B002AFF860B9607A6015
:104500007B680093BB6800228021F868FFF718FFE2
:104510000346002B07D0FB685B6D43F02002FB686D
:104520005A65032300E0002318461037BD4680BDBE
:10453000002B2DE9F0471F46BBBF03F100431F4688
:1045400000232D2388B01446129A109D1370149BDB
:10455000DDF84CA023F02008B8F1460F05D0B8F1E3
:10456000450F00D10135022300E0032307AA04927E
:1045700006AACDE902A2CDE9003522463B4600F06D
:104580005FFEB8F1470F064602D1119BDB0722D52B
:10459000B8F1460F06EB050910D13378302B0AD15C
:1045A0000022002320463946FCF7B2FA18B9C5F1BB
:1045B0000105CAF80050DAF80030994400220023BF
:1045C00020463946FCF7A4FA08B1CDF81C903022F9
:1045D000079B4B4507D33046079B159A9B1B1360DF
:1045E00008B0BDE8F087591C07911A70F0E7034640
:1045F000F7B5002903F8022BB6BF2D222B22494222
:10460000092942702ADD0DF1070217460A2691FB9F
:10461000F6F5944606FB151430340CF8014C0C46A4
:10462000632C294602F1FF32F1DC3031ACF1020497
:1046300002F8011C2246411CBA420AD30DF10902BC
:10464000A2EB0C02BC4288BF00221344181A03B02C
:10465000F0BD12F8015B01F8015FEDE73023303166
:104660008370C170031DF1E72DE9F04F91B00C4646
:10467000DDF8688016461F46054600F0D3FC036847
:1046800018460993FBF764FD00230E93D8F8003019
:104690000A90073323F0070303F1080294F81890F7
:1046A000D4F800B0C8F80020D3E900A85246434629
:1046B000C4E9122328F000430B934FF0FF32504619
:1046C0009C4B0B99FCF756FA70BB4FF0FF325046EB
:1046D000984B0B99FCF730FA30BB00220023504670
:1046E0004146FCF71FFA10B12D2384F84330924A5B
:1046F000924BB9F1470F94BF9046984603234FF071
:10470000000A23612BF00403236033462146284628
:1047100000970FAA00F0D6F9013040F090804FF0DA
:10472000FF3011B0BDE8F08F524643465046414637
:10473000FCF720FA48B1B8F1000FB8BF2D23804A2A
:10474000B8BF84F843307F4BD3E7636809F0DF01DB
:104750005A1C42D106236360002206920EAACDE9BC
:1047600004920DAA4BF4806303920DF13302CDE95C
:1047700001322360636852460093284643460B91FA
:10478000FFF7D6FE0B99804647290D9908D1C81C22
:1047900002DB6368994240DDA9F102095FFA89F9F9
:1047A000B9F1650F1FD84A46013904F150000D9147
:1047B000FFF71DFF0E9A82461318012A236102DCBF
:1047C0002268D20701D5013323619DF83330002BD5
:1047D0009BD02D2384F8433097E74729BCD1002B89
:1047E000BAD10123B7E7B9F1660F18D10029636880
:1047F0000BDD216113B92268D00702D501330B44C8
:1048000023614FF0000AA165DFE713B92268D207E0
:1048100001D50233F4E70123F2E74FF067090E9B5D
:10482000994205DB23682161D807EAD54B1CE7E7ED
:104830000029CCBF0122C1F102021344E0E7236842
:104840005A0507D42369424631462846B847013005
:104850002BD164E7B9F1650F40F2DD80D4E9120194
:1048600000220023FCF754F9002833D001233146FD
:104870002846354AB84701303FF451AFDDE90D23F2
:104880009A4202DB2368D8070FD5DDE909233146B8
:104890002846B84701303FF442AF4FF0000804F11A
:1048A0001A090E9B013B434509DC23689B0700F175
:1048B0000481E0680F9B9842B8BF184631E7012396
:1048C0004A4631462846B84701303FF428AF08F140
:1048D0000108E6E70D9B002B38DC01233146284612
:1048E000194AB84701303FF41AAFDDE90D321343DE
:1048F00002D12368D907D8D5DDE9092331462846F6
:10490000B84701303FF40BAF4FF0000904F11A0A29
:104910000D9B5B424B4501DC0E9B94E70123524605
:1049200031462846B84701303FF4F9AE09F1010994
:10493000EEE700BFFFFFEF7F6A7300086E730008A9
:1049400072730008767300087A7300080E9AA36DDC
:104950009A42A8BF1A46002A914637DC4FF0000B56
:1049600029EAE97904F11A02D4F858A0AAEB09035C
:104970005B4533DCDDE90D239A423BDB2368DA0734
:1049800038D4DDE90D32A2EB0309A2EB0A0291450E
:10499000A8BF9146B9F1000F34DC4FF0000829EAB6
:1049A000E97904F11A0ADDE90D239B1AA3EB090347
:1049B00043457FF77AAF0123524631462846B84730
:1049C00001303FF4ACAE08F10108ECE71346314684
:1049D00042462846B8470130C0D1A0E601233146FF
:1049E00028460B92B84701303FF499AE0B9A0BF171
:1049F000010BB9E73146DDE909232846B847013004
:104A0000BFD18CE64B463146284608EB0A02B84730
:104A10000130C2D183E60E9A012A01DCDB0739D5C9
:104A20000123424631462846B84701303FF477AE6D
:104A3000DDE9092331462846B84701303FF46FAE1F
:104A4000D4E9120100220023DDF83890FCF760F869
:104A5000D8B909F1FF3308F1010231462846B847B9
:104A600001300ED15BE601234A4631462846B8475D
:104A700001303FF454AE08F101080E9B013B434561
:104A8000F1DC534604F15002DEE64FF0000804F179
:104A90001A09F2E701234246DFE701234A4631467D
:104AA0002846B84701303FF43AAE08F10108E36800
:104AB0000F995B1A4345F0DCFBE64FF0000804F168
:104AC0001909F4E72DE9F047164699468A680B69FB
:104AD00007469342B8BF1346336091F843200C4613
:104AE000DDF820800AB1013333602368990642BFA4
:104AF000336802333360256815F0060506D104F1EA
:104B0000190AE36832689B1AAB422BDC94F8432005
:104B1000131E226818BF0123920630D44946384636
:104B200004F14302C047013023D02368226903F017
:104B30000603042B14BF002533684FF0000608BF9E
:104B4000E56804F11A0408BFED1A54F8123C08BFD6
:104B500025EAE5759342C4BF9B1AED18B5421AD1F8
:104B6000002008E00123524649463846C04701303C
:104B700003D14FF0FF30BDE8F0870135C1E73020A9
:104B8000E11881F843005A1C94F84510224402337E
:104B900082F84310C2E70123224649463846C047FF
:104BA0000130E6D00136D9E72DE9FF470F7E914667
:104BB000782F80460C469A460C9D01F1430207D897
:104BC000622F0AD8002F00F0D580582F00F0C18046
:104BD00004F1420584F842703AE0A7F16303152B13
:104BE000F6D801A151F823F0414C0008554C0008BB
:104BF000D14B0008D14B0008D14B0008D14B000825
:104C0000554C0008D14B0008D14B0008D14B00088F
:104C1000D14B00085B4D0008814C0008154D000881
:104C2000D14B0008D14B00087D4D0008D14B000846
:104C3000814C0008D14B0008D14B00081D4D0008E5
:104C40002B681A1D1B682A6004F1420584F8423063
:104C50000123A0E020682B68070603F10401296006
:104C600001D51E6803E04606FBD5B3F90060002EAF
:104C700003DA2D23764284F843300A23594812E0A0
:104C80002B682068191D2960050601D51E6802E001
:104C90004106FBD51E886F2F0CBF08230A235148FD
:104CA000002184F843106568002DA8BF2168A56025
:104CB000A4BF21F0040121600EB9002D4BD0154690
:104CC000B6FBF3F103FB1167C75D05F8017D3746BD
:104CD000BB420E46F4D9082B0BD12368DE0708D55A
:104CE000236961689942DEBF302305F8013C05F174
:104CF000FF35521B22614B4621464046CDF800A0AD
:104D000003AAFFF7DFFE01304AD14FF0FF3004B0B5
:104D1000BDE8F087236843F02003236078273248FA
:104D200084F84570236829681F0651F8046B02D483
:104D30005F0648BFB6B2DF0748BF43F020032960D3
:104D400048BF23601EB9236823F02003236010238B
:104D5000A6E72448E4E71546BDE72B682668181D3A
:104D60006169286035061B6801D5196002E070068C
:104D7000FBD51980002315462361BCE72B68002171
:104D80001A1D2A601D686268284600F0C1F908B142
:104D9000401B606063682361002384F84330AAE706
:104DA0002A46494640462369D0470130ADD02368A2
:104DB0009B0713D4E068039B9842B8BF1846A6E748
:104DC0000123324649464046D04701309DD0013547
:104DD000E36803995B1AAB42F2DCEBE7002504F1D0
:104DE0001906F5E77C7300088D730008002310B5E1
:104DF0000446C0E90033C0E904338360818143661F
:104E0000C2818361194608225C3000F002F9054B2B
:104E100024626362044BA362044BE362044B23638A
:104E200010BD00BF8D4F0008AF4F0008E74F0008CE
:104E30000B500008024A0349034800F069B800BF5C
:104E400028000020A56A00083400002041680C4BAF
:104E500010B59942044601D001F024FEA168094B27
:104E6000994202D0204601F01DFEE168064B9942AE
:104E700004D02046BDE8104001F014BE10BD00BFB4
:104E8000F802002060030020C803002010B50B4B7F
:104E90000B4C0C4A20461A6004210022FFF7A6FFA3
:104EA00004F1680001220921FFF7A0FF04F1D000FE
:104EB0000222BDE810401221FFF798BF3004002005
:104EC000F8020020354E0008014800F01FB900BF6D
:104ED00039040020014800F01AB900BF390400204D
:104EE00010B50446FFF7F0FF236A1BB1BDE8104080
:104EF000FFF7F0BF044B2362044B1B68002BF5D176
:104F0000FFF7C4FFF2E700BF4D4E00083004002059
:104F10002DE9F8430746884614460026D4E9019552
:104F2000B9F1010905D52468002CF7D13046BDE858
:104F3000F883AB89012B07D9B5F90E30013303D0C3
:104F400029463846C04706436835E9E70EB46FF096
:104F5000004100B59CB01DAB0290069007910491F2
:104F60000848094953F8042B0591006802A90193E8
:104F700001F018FC0022029B1A701CB05DF804EBD3
:104F800003B07047800000200802FFFF10B50C46F8
:104F9000B1F90E1000F06CF80028ABBF636DA38967
:104FA0001B1823F48053ACBF6365A38110BD2DE9AA
:104FB000F0411F468B890546DB050C46164605D594
:104FC00002230022B1F90E1000F040F8A389324606
:104FD00023F48053A38128463B46B4F90E10BDE864
:104FE000F04100F057B810B50C46B1F90E1000F0C2
:104FF0002DF8431CA38915BF606523F4805343F447
:105000008053A38118BFA38110BDB1F90E1000F029
:105010000DB803460244934200D1704703F8011BC8
:10502000F9E70000004870477401002038B50023FC
:10503000054D044608462B60FDF757F8431C02D186
:105040002B6803B1236038BD3404002038B5044612
:10505000084611460022054D2A601A46FDF769F8F8
:10506000431C02D12B6803B1236038BD34040020F7
:1050700038B50446084611460022054D2A601A46F6
:10508000FCF7FAFF431C02D12B6803B1236038BD43
:105090003404002038B50446084611460022054D68
:1050A0002A601A46FDF705F8431C02D12B6803B1AC
:1050B000236038BD34040020014B1868704700BFDE
:1050C0008000002070B500260C4D0D4C641BA41010
:1050D000A64209D102F008F900260A4D0A4C641BC9
:1050E000A410A64205D170BD55F8043B984701367F
:1050F000EEE755F8043B98470136F2E7DC76000806
:10510000DC760008DC760008E0760008704770471F
:10511000034610B5C9B202449342184601D100209B
:1051200003E0047801338C42F6D110BD2DE9F74F2E
:1051300003690C690746A3427FDB013C00F11405BB
:1051400001F1140805EB8403019358F8243055F855
:10515000242001339A42B2FBF3F64FEA840B08EBAA
:10516000840931D34FF0000E4046AC46F24650F869
:10517000042B93B206FB03E34FEA124E1A0C9BB2C8
:1051800006FB0E22AAEB0303DCF800A04FEA124E46
:105190001FFA8AFA5344DCF800A092B2C2EB1A421A
:1051A00002EB23429BB243EA024381454FEA224A83
:1051B0004CF8043BDBD255F80B302BB9019B043B78
:1051C0009D421A462DD33C61384601F093F90028E0
:1051D00023DB29460020013658F8042BD1F800C003
:1051E00093B2C31A120C1FFA8CF00344C2EB1C4298
:1051F00002EB23429BB243EA0243C1454FEA2240FD
:1052000041F8043BE8D255F8242005EB840322B989
:10521000043B9D421A460AD33C61304603B0BDE8C8
:10522000F08F1268043B002ACDD1013CC8E7126818
:10523000043B002AF0D1013CEBE70020EEE7000040
:105240002DE9F04F16461F46C46999B00546CDE9D1
:105250000467DDF8948074B9102000F01DFE02464A
:10526000E86120B9EF21AC4BAC4801F07BFCC0E910
:1052700001440460C460EB69196851B15A680123A4
:1052800093404A608B60284600F0FAFE0022EB69EA
:105290001A603B1EAFBF0023012223F00043059399
:1052A000A8BFC8F80030DDF814909D4BB8BFC8F80F
:1052B000002033EA090319D142F20F73249A1360D4
:1052C000C9F31303334300F08985269B53B9954BEB
:1052D00023E0954B03930833269A1360039819B083
:1052E000BDE8F08F8F4B03930333F5E7DDE904341A
:1052F000CDE90C34DDE90C0100220023FBF708FCAA
:10530000804660B10123249A1360269B002B00F095
:105310006285864B269A1360013B0393DEE716AB4A
:10532000019317AB00932846DDE90C2301F08AF9BD
:10533000C9F30A548246002C7ED0DDE90C010D9B96
:10534000A4F2FF34C3F3130343F07F5343F4401339
:10535000CDF84C8019460022754BFAF7B9FF68A3C7
:10536000D3E90023FBF76CF967A3D3E90023FAF72D
:10537000B1FF064620460F46FBF7F8F864A3D3E9D1
:105380000023FBF75DF902460B4630463946FAF733
:10539000A1FF06460F46FBF703FC002283460023CD
:1053A00030463946FBF7BEFB48B15846FBF7DEF8FE
:1053B00032463B46FBF7ACFB08B90BF1FF3BBBF1B8
:1053C000160F57D8DDE90C015A4B03EBCB03D3E999
:1053D0000023FBF7A7FB00284ED000230BF1FF3B77
:1053E0000F93169B1B1B5A1E46BFC3F101090023D6
:1053F0004FF00009099248BF0993BBF1000F3DDB54
:10540000099BCDF838B05B44099300230A93229B93
:10541000092B67D8052BC4BF043B2293229BC8BF2E
:105420000024A3F10203D8BF0124032B00F28680DD
:10543000DFE803F02C393756DDE916431C4404F24B
:105440003243202BC1BFC3F1400309FA03F904F230
:10545000124326FA03F3D6BFC3F1200349EA03003F
:1054600006FA03F0FBF772F80122A1F1F873013C90
:1054700013926FE70123B3E70F90B2E7CBF100037C
:105480000A930023A9EB0B090E93C0E700230B93AB
:10549000239B002B55DC01231A4606930893239285
:1054A0000BE00123F3E700230B93239B5B4406935C
:1054B0000133012B0893B8BF012300210422E869BE
:1054C00002F114069E4240D94160284600F098FD42
:1054D000039000283CD1024640F2AF11164BC3E6C0
:1054E0000123E1E7012400230B9422934FF0FF33C3
:1054F0000022069308931223D1E700BFAFF3008088
:1055000061436F63A787D23FB3C8608B288AC63FC9
:10551000FB799F501344D33FAB730008C27300085C
:105520000000F07FA77300089E7300087B730008DB
:105530000000F83FB07400081A74000801230B93B0
:10554000D4E7239B06930893B7E701315200B7E7EE
:10555000EB69039A1A60089B0E2B00F2A880002CBE
:1055600000F0A580BBF1000F34DD9A4B0BF00F0269
:1055700003EBC2031BF4807FD3E90034CDE9103480
:105580004FEA2B1416D0DDE90C01934B0327D3E926
:105590000823FBF77FF9CDE9040104F00F048E4ED8
:1055A00054B9DDE91023DDE90401FBF773F9CDE916
:1055B000040129E00227F2E7E10708D5DDE910013F
:1055C000D6E90023FBF73CF8CDE910010137641060
:1055D0000836E5E700F0A580DDE90C01CBF1000419
:1055E0007C4B04F00F0203EBC203D3E90023FBF76B
:1055F00027F802270023CDE90401774E2411002C5F
:1056000040F08480002BD2D1DDE90434CDE91034A0
:105610000F9B002B00F08780DDE9100100226F4B0B
:10562000FBF780FA00287ED0089B002B7BD0069BDE
:10563000002B38DDDDE910010022694BFBF700F893
:10564000CDE90401069C0BF1FF3801373846FAF723
:105650008DFFDDE90423FAF7F3FF0022614BFAF72F
:1056600039FEA1F15076CDE910011196002C5DD1E3
:10567000DDE9040100225C4BFAF72AFE02460B46E4
:10568000CDE904233346109AFBF76AFA002840F06C
:105690009582DDE90401109A06F10043FBF742FA16
:1056A000002840F08982DDE90C34CDE90434179BF1
:1056B000002BC0F25181BBF10E0F00F34D81454B21
:1056C00003EBCB03D3E90034CDE90634239B002B55
:1056D00080F2DA80089B002B00F3D68040F06B82CA
:1056E000DDE906010022404BFAF7AAFFDDE90423B9
:1056F000FBF72CFA089C2646002840F04182312313
:10570000039F0BF1010B07F8013B3DE2E20705D5D2
:10571000D6E90023FAF794FF012301376410083615
:105720006DE7022770E7D846089C8FE70399294B5D
:10573000214412910B9903EBC403DDE9106753E98F
:105740000223002954D000202849FBF7A3F83B4648
:105750003246FAF7BDFDCDE91001039FDDE90401F2
:10576000FBF71EFA0446FAF701FF02460B46DDE995
:105770000401FAF7ADFD02460B463034CDE90423AF
:10578000DDE9102307F8014BFBF7CCF9002873D1B2
:10579000DDE9042300201149FAF79AFDDDE9102321
:1057A000FBF7C0F9002840F0B680129B9F423FF4FF
:1057B0007AAFDDE910010022094BFAF741FF002220
:1057C000CDE91001DDE90401054BFAF739FFCDE918
:1057D0000401C3E7B0740008887400080000F03FBB
:1057E0000000244000001C40000014400000E03F86
:1057F00030463946FAF724FF129BCDE91001039C8D
:105800001493DDE90401FBF7CBF91590FAF7AEFE2E
:1058100002460B46DDE90401FAF75AFD159B0646E0
:10582000303304F8013B129B0F469C424FF00002BC
:1058300024D1DDE91001AF4BFAF74CFD02460B46CF
:1058400030463946FBF78CF9002863D1DDE9102397
:105850000020A849FAF73CFD02460B46304639467F
:10586000FBF760F900283FF41EAF149F7B1E1493D2
:1058700017F8013C302BF8D0C3463BE09E4BFAF7BB
:10588000DFFECDE90401BCE7039FDDE90489DDE922
:10589000062340464946FAF7FDFFFBF781F9044627
:1058A000FAF764FEDDE90623FAF7CAFE02460B4664
:1058B00040464946FAF70CFD04F1300607F8016B43
:1058C000039EDDF820C0BE1BB44502460B4636D110
:1058D000FAF700FDDDE9062380468946FBF740F92B
:1058E00058BBDDE9062340464946FBF711F908B1EC
:1058F000E30722D45146284600F0C2FB0023249A35
:105900003B700BF101031360269B002B3FF4E6ACC8
:105910001F60E3E427463B461F4613F8012D392A52
:1059200007D1039A9A42F7D13022039908F101086E
:105930000A701A7801321A709EE7D846EBE7002207
:105940006D4BFAF77DFE0022002380468946FBF767
:10595000DFF800289BD0CDE70B9A002A00F0C48026
:10596000229A012A00F3A880139A002A00F0A0804E
:1059700003F233434F460A9C099A01211A442846F0
:105980009944099200F032FC06465FB1099B002B56
:1059900008DDBB42A8BF3B46099AA9EB0309FF1AE1
:1059A000D31A09930A9BF3B10B9B002B00F0A08044
:1059B000002C10DD31462246284600F0D5FC524628
:1059C00001460646284600F027FC804651462846F8
:1059D00000F056FBC2460A9B1A1B04D051462846CB
:1059E00000F0C2FC82460121284600F0FFFB0E9B1E
:1059F0000446002B40F382801A460146284600F0F8
:105A0000B3FC229B0446012B7BDD4FF00008236989
:105A100004EB8303186900F09BFBC0F12000099B95
:105A2000184410F01F0000F09280C0F12003042BF6
:105A300040F38580099BC0F11C0003448144074466
:105A40000993B9F1000F05DD51464A46284600F09A
:105A5000E5FC8246099B002B05DD21461A462846B7
:105A600000F0DCFC04460F9B002B72D02146504610
:105A700000F040FD00286CDA002351460A22284637
:105A800000F020FB0B9B82460BF1FF3B002B00F04C
:105A9000AC81002331460A22284600F013FB069B06
:105AA0000646002B00F39380229B022B59DC8EE0EC
:105AB000169BC3F136035DE7089B5C1E0A9BA3425D
:105AC000BFBF0A9B0E9AE31AD218A8BF1C1B089BE3
:105AD000BEBF0A940E920024002BB5BFA9EB0307AA
